:0400000007EF00F016
:100008006D8217ED06F0DEEF05F0240E696E000E26
:100018006A6E37EC05F01F0E5D6E000E5E6E44ECE6
:1000280003F0370E656E000E666ED5EC04F0360EE2
:10003800656E000E666ED5EC04F0350E656E000E2A
:10004800666ED5EC04F0340E656E000E666ED5EC67
:1000580004F0330E656E000E666ED5EC04F0320EB9
:10006800656E000E666ED5EC04F02F0E646E000E01
:10007800656E32EC06F02C0E646E000E656E32EC86
:1000880006F0290E646E000E656E32EC06F00F0E57
:10009800C112070EB4122F0E646E000E656E3A0E72
:1000A800666E000E676EE5EC02F02C0E646E000EB4
:1000B800656E390E666E000E676EE5EC02F0290E6D
:1000C800646E000E656E380E666E000E676EE5ECA7
:1000D80002F03A50D8A473EF00F075EF00F07BEF10
:1000E80000F01F0E5B6E000E5C6E44EC06F039509B
:1000F800D8A481EF00F083EF00F089EF00F01F0E25
:100108005D6E000E5E6E44EC03F03850D8A48FEF9D
:1001180000F091EF00F099EF00F0000E586E000E1D
:10012800576E000E566E000E556E010E5B6E030E76
:10013800A3EC05F0240E656E000E666E55C05BF0EC
:100148005C6A000E5E6E0A0E5D6E83EC02F05B5018
:10015800676E4FEC04F0140E6C6E7A0EE82EFED724
:100168006C2EFCD7020E5B6E030EA3EC05F0240E7A
:10017800656E000E666E55C05BF05C6A000E5E6EC2
:100188000A0E5D6EA0EC03F05B50676E4FEC04F056
:10019800140E6C6E7A0EE82EFED76C2EFCD7040E69
:1001A8005B6E030EA3EC05F0240E656E000E666E02
:1001B80056C05BF05C6A000E5E6E0A0E5D6E83ECE4
:1001C80002F05B50676E4FEC04F0140E6C6E7A0E02
:1001D800E82EFED76C2EFCD7080E5B6E030EA3EC40
:1001E80005F0240E656E000E666E56C05BF05C6A04
:1001F800000E5E6E0A0E5D6EA0EC03F05B50676E3B
:100208004FEC04F0140E6C6E7A0EE82EFED76C2EAE
:10021800FCD7100E5B6E030EA3EC05F0240E656E82
:10022800000E666E57C05BF05C6A000E5E6E0A0ECA
:100238005D6E83EC02F05B50676E4FEC04F0140EB9
:100248006C6E7A0EE82EFED76C2EFCD7200E5B6EF5
:10025800030EA3EC05F0240E656E000E666E57C003
:100268005BF05C6A000E5E6E0A0E5D6EA0EC03F039
:100278005B50676E4FEC04F0140E6C6E7A0EE82E2D
:10028800FED76C2EFCD74FEF00F007EF00F0010E01
:10029800636E5B505C10D8B454EF01F056EF01F078
:1002A80067EF01F05BC0D9FF5CC0DAFFDF30E832EE
:1002B800E832070B5D6E070E5D6465EF01F067EFCE
:1002C80001F0CAEF01F0000E636EEBEF01F05BC0C6
:1002D800D9FF5CC0DAFFDF30E832E832070B5D6E29
:1002E800010E5E6E5D2A7BEF01F0D8905E365D2EC2
:1002F80079EF01F05E50FF0A5F6E5BC0D9FF5CC00A
:10030800DAFFDF50070B606E6050020D150EF32404
:10031800D96E000EF420DA6EDECF61F0DDCF62F028
:1003280061C0D9FF62C0DAFF5F50DF16EBEF01F062
:100338005BC0D9FF5CC0DAFFDF30E832E832070B78
:100348005D6E010E5E6E5D2AACEF01F0D8905E36F0
:100358005D2EAAEF01F05BC0D9FF5CC0DAFFDF5069
:10036800070B5F6E5F50020D150EF324D96E000E59
:10037800F420DA6EDECF60F0DDCF61F060C0D9FF27
:1003880061C0DAFF5E50DF12EBEF01F05BC0D9FF0E
:100398005CC0DAFFDFBCD3EF01F0D6EF01F0010E4D
:1003A800D7EF01F0000E5D6E5E6A5E50000AD8B4A9
:1003B800E0EF01F067EF01F05D50000AD8B46BEF91
:1003C80001F0010AD8B49CEF01F067EF01F0635027
:1003D8001200010E646E5B505C10D8B4F6EF01F0A9
:1003E800F8EF01F009EF02F05BC0D9FF5CC0DAFF5B
:1003F800DF30E832E832070B5E6E070E5E6407EF07
:1004080002F009EF02F06CEF02F0000E646E6CEF80
:1004180002F05BC0D9FF5CC0DAFFDF30E832E832B7
:10042800070B5E6E010E5F6E5E2A1DEF02F0D8901C
:100438005F365E2E1BEF02F05F50FF0A606E5BC0F6
:10044800D9FF5CC0DAFFDF50070B616E6150020D07
:100458000B0EF324D96E000EF420DA6EDECF62F0B4
:10046800DDCF63F062C0D9FF63C0DAFF6050DF16EA
:1004780081EF02F05BC0D9FF5CC0DAFFDF30E83201
:10048800E832070B5E6E010E5F6E5E2A4EEF02F0D9
:10049800D8905F365E2E4CEF02F05BC0D9FF5CC08F
:1004A800DAFFDF50070B606E6050020D0B0EF3246D
:1004B800D96E000EF420DA6EDECF61F0DDCF62F087
:1004C80061C0D9FF62C0DAFF5F50DF1281EF02F02E
:1004D8005D505E6E5F6A5F50000AD8B476EF02F036
:1004E80081EF02F05E50000AD8B40DEF02F0010A65
:1004F800D8B43EEF02F081EF02F064501200000E13
:10050800606E5EBE8CEF02F08AEF02F092EF02F0AE
:100518005D6C5E1ED8B05E2A010E606E5CBE99EFFF
:1005280002F097EF02F09FEF02F05B6C5C1ED8B010
:100538005C2A010E601A000E626E000E616E5D503C
:100548005E10D8B4AAEF02F0ACEF02F0D4EF02F0DC
:10055800010E5F6EB4EF02F0D8905D365E365F2A0A
:100568005EAEB9EF02F0BBEF02F0B0EF02F0D89048
:10057800613662365D505B5C5E505C58D8A0C7EF50
:1005880002F0C9EF02F0CEEF02F05D505B5E5E5004
:100598005C5A6180D8905E325D325F2EBBEF02F00C
:1005A8006050D8B4DAEF02F0DCEF02F0E0EF02F0CE
:1005B800616C621ED8B0622A61C05BF062C05CF0F8
:1005C8001200000E696E64506510D8B4EEEF02F0A8
:1005D800F0EF02F0F9EF02F066506710D8A4F7EFD9
:1005E80002F0F9EF02F0FBEF02F043EF03F064C012
:1005F8005BF065C05CF0690E5D6E000E5E6EF8EC37
:1006080003F020EE01F06450D9266550DA22DF505D
:10061800D8A411EF03F013EF03F02BEF03F06904F4
:10062800D8A419EF03F01BEF03F023EF03F066C023
:10063800D9FF67C0DAFF000EDF6E43EF03F066C034
:10064800D9FF67C0DAFF010EDF6E43EF03F020EE3B
:1006580001F06450D9266550DA22DE04D8A437EFB9
:1006680003F039EF03F043EF03F06950D8A43FEFEC
:1006780003F041EF03F023EF03F01BEF03F0120048
:100688005D505E10D8A44BEF03F04DEF03F04FEF31
:1006980003F09FEF03F0CD9020EE04F05D50D926D3
:1006A8005E50DA22DF50030B5F6E5F3ACD505F1861
:1006B800CF0B5F18CD6E5DC05BF05EC05CF096EC52
:1006C80004F05DC05BF05EC05CF084EC05F05DC0DA
:1006D8005BF05EC05CF065EC05F020EE02F05D506A
:1006E800D9265E50DA22DECF5FF0DDCF60F060C041
:1006F8005FF0606A5F50CF6E20EE02F05D50D92641
:100708005E50DA22DF50CE6E20EE02F05D50D92620
:100718005E50DA22DECF3BF0DDCF3CF09D809E902C
:10072800F28EF28C5DC0D9FF5EC0DAFFDECF3DF0FD
:10073800DDCF3EF0CD801200000E606E5CBEA9EFEA
:1007480003F0A7EF03F0AFEF03F05B6C5C1ED8B0CB
:100758005C2A010E606E5EBEB6EF03F0B4EF03F0E4
:10076800BAEF03F05D6C5E1ED8B05E2A5D505E1075
:10077800D8B4C1EF03F0C3EF03F0E7EF03F0010EC5
:100788005F6ECBEF03F0D8905D365E365F2A5EAEC3
:10079800D0EF03F0D2EF03F0C7EF03F05D505B5CDE
:1007A8005E505C58D8A0DBEF03F0DDEF03F0E1EF1B
:1007B80003F05D505B5E5E505C5AD8905E325D32ED
:1007C8005F2ED2EF03F06050D8B4EDEF03F0EFEFF7
:1007D80003F0F3EF03F05B6C5C1ED8B05C2A5BC0DF
:1007E8005BF05CC05CF012005B505C10D8B4FFEFAB
:1007F80003F001EF04F01BEF04F05D505E10D8B475
:1008080008EF04F00AEF04F01BEF04F05BC0D9FF17
:100818005CC0DAFFDF30E832E832070B5F6E070EA4
:100828005F6419EF04F01BEF04F01DEF04F04EEFC6
:1008380004F05BC0D9FF5CC0DAFFDF30E832E83291
:10084800070B5F6E5BC0D9FF5CC0DAFFDF50070B98
:10085800606E6050020D010EF324D96E000EF42074
:10086800DA6EDECF61F0DDCF62F061C0D9FF62C021
:10087800DAFFDF50636E5F2A44EF04F0D8906332EA
:100888005F2E42EF04F06350010B5DC0D9FF5EC0DC
:10089800DAFFDF6E120065506610D8B456EF04F028
:1008A80058EF04F060EF04F0090E67645EEF04F09F
:1008B80060EF04F062EF04F095EF04F065C05BF0C0
:1008C80066C05CF06750010B5D6EEDEC01F0686E80
:1008D800010E65245B6E000E66205C6ED890673052
:1008E800010B5D6EEDEC01F0686E020E65245B6E27
:1008F800000E66205C6E6740E8423F0B010B5D6EA0
:10090800EDEC01F0686E030E65245B6E000E662048
:100918005C6E6738E8461F0B010B5D6EEDEC01F06D
:10092800686E120020EE04F05B50D9265C50DA2283
:10093800DFB4A1EF04F0A3EF04F0A6EF04F0CD922A
:10094800D4EF04F020EE04F05B50D9265C50DA2294
:10095800DFA4B1EF04F0B3EF04F0D4EF04F0CD82DC
:1009680020EE04F05B50D9265C50DA22DFB6BFEFE8
:1009780004F0C1EF04F0C4EF04F0CD94D4EF04F018
:1009880020EE04F05B50D9265C50DA22DFA6CFEFC8
:1009980004F0D1EF04F0D4EF04F0CD84D4EF04F0E8
:1009A800120065506610D8B4DCEF04F0DEEF04F0F6
:1009B800EFEF04F065C0D9FF66C0DAFFDF30E83238
:1009C800E832070B676E070E6764EDEF04F0EFEF90
:1009D80004F0EFEF04F065C05BF066C05CF04BEC30
:1009E80001F065C05BF066C05CF065C0D9FF66C009
:1009F800DAFF000EDFBE010E5D6EEDEC01F0686EF1
:100A080068501200582A1F0E5818D8A40EEF05F087
:100A180010EF05F013EF05F0572A000E586E3C0E44
:100A28005718D8A41AEF05F01CEF05F01FEF05F0D2
:100A3800562A000E576E3C0E5618D8A426EF05F01D
:100A480028EF05F02BEF05F0552A000E566E180E0C
:100A58005518D8A432EF05F034EF05F036EF05F05D
:100A6800000E556E120069506A10D8A43EEF05F0CA
:100A780040EF05F042EF05F064EF05F069C065F05E
:100A88006AC066F0D5EC04F06B6E010E6924656EE1
:100A9800000E6A20666ED5EC04F06B6E020E6924B7
:100AA800656E000E6A20666ED5EC04F06B6E030E60
:100AB8006924656E000E6A20666ED5EC04F06B6ED4
:100AC800120020EE04F05B50D9265C50DA22DFBA1F
:100AD80070EF05F072EF05F075EF05F0CD9E83EF2E
:100AE80005F020EE04F05B50D9265C50DA22DFAA2C
:100AF80080EF05F082EF05F083EF05F0CD8E120050
:100B080020EE04F05B50D9265C50DA22DFA88FEF84
:100B180005F091EF05F094EF05F0CD86A2EF05F012
:100B280020EE04F05B50D9265C50DA22DFB89FEF44
:100B380005F0A1EF05F0A2EF05F0CD9612005E6E6C
:100B4800050E5E64AAEF05F0ACEF05F0AEEF05F018
:100B5800C0EF05F05E50020D0B0EF324D96E000EA7
:100B6800F420DA6EDECF5CF0DDCF5DF05CC0D9FF3B
:100B78005DC0DAFF5BC0DFFF1200800F810F820FBC
:100B8800830F840F890F8A0F8B0F8C0F8D0F920F95
:100B9800930F940F950F960F0C0A000000020A128B
:100BA8001A015000014800014000012B231B130BC0
:100BB80003010101820EF66E0B0EF76E000EF86E41
:100BC80000EE01F010EE3AF00900F5CFEEFFE55027
:100BD800E150FAE100EE3BF01E0EEE6AE806FDE198
:100BE8006D906D92000EF86E000109EF00F09E9076
:100BF8003C50CF6E3BC0CEFF3D503E10D8B407EFFF
:100C080006F009EF06F016EF06F002D816EF06F028
:100C18000500FA6E3D50FD6E3E50FE6EF850FF6EB8
:100C2800FA50120012000600FACF59F0FBCF5AF022
:100C38009DA021EF06F023EF06F02CEF06F09EA012
:100C480028EF06F02AEF06F02CEF06F0FBEC05F093
:100C58005AC0FBFF59C0FAFF6D921100645065102D
:100C6800D8A439EF06F03BEF06F03DEF06F043EF6E
:100C780006F064C05BF065C05CF04BEC01F012005C
:100C88005B505C10D8A44BEF06F04DEF06F04FEF29
:0C0C980006F051EF06F0CD909D90120088
:020000040020DA
:08000000FFFFFFFFFFFFFFFF00
:020000040030CA
:0E000000FF020912FF8181FF0FC00FE00F40C9
:00000001FF
