:0400000007EF00F016
:100008006E821DED06F0E4EF05F0240E6A6E000E18
:100018006B6E3DEC05F01F0E5E6E000E5F6E46ECDB
:1000280003F0370E666E000E676E0CEC05F0360EA8
:10003800666E000E676E0CEC05F0350E666E000EEF
:10004800676E0CEC05F0340E666E000E676E0CECF5
:1000580005F0330E666E000E676E0CEC05F0320E7E
:10006800666E000E676E0CEC05F02F0E656E000EC6
:10007800666E38EC06F02C0E656E000E666E38EC77
:1000880006F0290E656E000E666E38EC06F00F0E4F
:10009800C112070EB4122F0E656E000E666E3A0E70
:1000A800676E000E686EE7EC02F02C0E656E000EAF
:1000B800666E390E676E000E686EE7EC02F0290E68
:1000C800656E000E666E380E676E000E686EE7ECA1
:1000D80002F03A50D8A473EF00F075EF00F07BEF10
:1000E80000F01F0E5C6E000E5D6E4AEC06F0395093
:1000F800D8A481EF00F083EF00F089EF00F01F0E25
:100108005E6E000E5F6E46EC03F03850D8A48FEF99
:1001180000F091EF00F09BEF00F0000E3C6E000E37
:100128003B6E000E596E000E586E000E576E010E93
:100138005C6E030EA9EC05F0240E666E000E676E69
:1001480057C05CF05D6A000E5F6E0A0E5E6E85EC4D
:1001580002F05C50686E51EC04F0140E6D6E7A0E6D
:10016800E82EFED76D2EFCD7020E5C6E030EA9ECAE
:1001780005F0240E666E000E676E57C05CF05D6A6F
:10018800000E5F6E0A0E5E6EA2EC03F05C50686EA5
:1001980051EC04F0140E6D6E7A0EE82EFED76D2E1B
:1001A800FCD7040E5C6E030EA9EC05F0240E666EF7
:1001B800000E676E58C05CF05D6A000E5F6E0A0E36
:1001C8005E6E85EC02F05C50686E51EC04F0140E23
:1001D8006D6E7A0EE82EFED76D2EFCD7080E5C6E7B
:1001E800030EA9EC05F0240E666E000E676E58C06B
:1001F8005CF05D6A000E5F6E0A0E5E6EA2EC03F0A4
:100208005C50686E51EC04F0140E6D6E7A0EE82E98
:10021800FED76D2EFCD7100E5C6E030EA9EC05F010
:10022800240E666E000E676E59C05CF05D6A000EA3
:100238005F6E0A0E5E6E85EC02F05C50686E51ECE3
:1002480004F0140E6D6E7A0EE82EFED76D2EFCD7D4
:10025800200E5C6E030EA9EC05F0240E666E000EEF
:10026800676E59C05CF05D6A000E5F6E0A0E5E6EC6
:10027800A2EC03F05C50686E51EC04F0140E6D6E45
:100288007A0EE82EFED76D2EFCD74FEF00F007EF61
:1002980000F0010E646E5C505D10D8B456EF01F0AA
:1002A80058EF01F069EF01F05CC0D9FF5DC0DAFFDB
:1002B800DF30E832E832070B5E6E070E5E6467EFE8
:1002C80001F069EF01F0CCEF01F0000E646EEDEF84
:1002D80001F05CC0D9FF5DC0DAFFDF30E832E832F8
:1002E800070B5E6E010E5F6E5E2A7DEF01F0D890FF
:1002F8005F365E2E7BEF01F05F50FF0A606E5CC0D8
:10030800D9FF5DC0DAFFDF50070B616E6150020D47
:10031800150EF324D96E000EF420DA6EDECF62F0EB
:10032800DDCF63F062C0D9FF63C0DAFF6050DF162B
:10033800EDEF01F05CC0D9FF5DC0DAFFDF30E832D5
:10034800E832070B5E6E010E5F6E5E2AAEEF01F0BB
:10035800D8905F365E2EACEF01F05CC0D9FF5DC06F
:10036800DAFFDF50070B606E6050020D150EF324A4
:10037800D96E000EF420DA6EDECF61F0DDCF62F0C8
:1003880061C0D9FF62C0DAFF5F50DF12EDEF01F004
:100398005CC0D9FF5DC0DAFFDFBCD5EF01F0D8EF54
:1003A80001F0010ED9EF01F0000E5E6E5F6A5F503A
:1003B800000AD8B4E2EF01F069EF01F05E50000ADC
:1003C800D8B46DEF01F0010AD8B49EEF01F069EFDF
:1003D80001F064501200010E656E5C505D10D8B4D7
:1003E800F8EF01F0FAEF01F00BEF02F05CC0D9FF73
:1003F8005DC0DAFFDF30E832E832070B5F6E070EC8
:100408005F6409EF02F00BEF02F06EEF02F0000EEE
:10041800656E6EEF02F05CC0D9FF5DC0DAFFDF30B9
:10042800E832E832070B5F6E010E606E5F2A1FEF3D
:1004380002F0D89060365F2E1DEF02F06050FF0A80
:10044800616E5CC0D9FF5DC0DAFFDF50070B626EDA
:100458006250020D0B0EF324D96E000EF420DA6EF2
:10046800DECF63F0DDCF64F063C0D9FF64C0DAFF8C
:100478006150DF1683EF02F05CC0D9FF5DC0DAFF80
:10048800DF30E832E832070B5F6E010E606E5F2ADC
:1004980050EF02F0D89060365F2E4EEF02F05CC04D
:1004A800D9FF5DC0DAFFDF50070B616E6150020DA6
:1004B8000B0EF324D96E000EF420DA6EDECF62F054
:1004C800DDCF63F062C0D9FF63C0DAFF6050DF128E
:1004D80083EF02F05E505F6E606A6050000AD8B425
:1004E80078EF02F083EF02F05F50000AD8B40FEF04
:1004F80002F0010AD8B440EF02F083EF02F0655031
:100508001200000E616E5FBE8EEF02F08CEF02F0FB
:1005180094EF02F05E6C5F1ED8B05F2A010E616E28
:100528005DBE9BEF02F099EF02F0A1EF02F05C6C68
:100538005D1ED8B05D2A010E611A000E636E000EB2
:10054800626E5E505F10D8B4ACEF02F0AEEF02F00E
:10055800D6EF02F0010E606EB6EF02F0D8905E366C
:100568005F36602A5FAEBBEF02F0BDEF02F0B2EF7C
:1005780002F0D890623663365E505C5C5F505D581E
:10058800D8A0C9EF02F0CBEF02F0D0EF02F05E5036
:100598005C5E5F505D5A6280D8905F325E32602E3A
:1005A800BDEF02F06150D8B4DCEF02F0DEEF02F0EC
:1005B800E2EF02F0626C631ED8B0632A62C05CF09E
:1005C80063C05DF01200000E6A6E65506610D8B404
:1005D800F0EF02F0F2EF02F0FBEF02F06750681064
:1005E800D8A4F9EF02F0FBEF02F0FDEF02F045EFBF
:1005F80003F065C05CF066C05DF06A0E5E6E000ECA
:100608005F6EFAEC03F020EE01F06550D9266650D3
:10061800DA22DF50D8A413EF03F015EF03F02DEF23
:1006280003F06A04D8A41BEF03F01DEF03F025EFD5
:1006380003F067C0D9FF68C0DAFF000EDF6E45EF30
:1006480003F067C0D9FF68C0DAFF010EDF6E45EF1F
:1006580003F020EE01F06550D9266650DA22DE0458
:10066800D8A439EF03F03BEF03F045EF03F06A50ED
:10067800D8A441EF03F043EF03F025EF03F01DEF9B
:1006880003F012005E505F10D8A44DEF03F04FEF57
:1006980003F051EF03F0A1EF03F0CD9020EE04F04A
:1006A8005E50D9265F50DA22DF50030B606E603A45
:1006B800CD506018CF0B6018CD6E5EC05CF05FC087
:1006C8005DF098EC04F05EC05CF05FC05DF08AEC11
:1006D80005F05EC05CF05FC05DF06BEC05F020EEED
:1006E80002F05E50D9265F50DA22DECF60F0DDCF0F
:1006F80061F061C060F0616A6050CF6E20EE02F078
:100708005E50D9265F50DA22DF50CE6E20EE02F01E
:100718005E50D9265F50DA22DECF3DF0DDCF3EF0C5
:100728009D809E90F28EF28C5EC0D9FF5FC0DAFF8A
:10073800DECF3FF0DDCF40F0CD801200000E616EBD
:100748005DBEABEF03F0A9EF03F0B1EF03F05C6C13
:100758005D1ED8B05D2A010E616E5FBEB8EF03F072
:10076800B6EF03F0BCEF03F05E6C5F1ED8B05F2AF3
:100778005E505F10D8B4C3EF03F0C5EF03F0E9EFA4
:1007880003F0010E606ECDEF03F0D8905E365F3651
:10079800602A5FAED2EF03F0D4EF03F0C9EF03F0A5
:1007A8005E505C5C5F505D58D8A0DDEF03F0DFEF72
:1007B80003F0E3EF03F05E505C5E5F505D5AD89043
:1007C8005F325E32602ED4EF03F06150D8B4EFEFA1
:1007D80003F0F1EF03F0F5EF03F05C6C5D1ED8B0A9
:1007E8005D2A5CC05CF05DC05DF012005C505D107D
:1007F800D8B401EF04F003EF04F01DEF04F05E50ED
:100808005F10D8B40AEF04F00CEF04F01DEF04F009
:100818005CC0D9FF5DC0DAFFDF30E832E832070B91
:10082800606E070E60641BEF04F01DEF04F01FEF0D
:1008380004F050EF04F05CC0D9FF5DC0DAFFDF3090
:10084800E832E832070B606E5CC0D9FF5DC0DAFFA2
:10085800DF50070B616E6150020D010EF324D96E53
:10086800000EF420DA6EDECF62F0DDCF63F062C0F6
:10087800D9FF63C0DAFFDF50646E602A46EF04F0E8
:10088800D8906432602E44EF04F06450010B5EC0CF
:10089800D9FF5FC0DAFFDF6E120066506710D8B468
:1008A80058EF04F05AEF04F062EF04F0090E6864A0
:1008B80060EF04F062EF04F064EF04F097EF04F0E7
:1008C80066C05CF067C05DF06850010B5E6EEFECCF
:1008D80001F0696E010E66245C6E000E67205D6E85
:1008E800D8906830010B5E6EEFEC01F0696E020E75
:1008F80066245C6E000E67205D6E6840E8423F0B20
:10090800010B5E6EEFEC01F0696E030E66245C6EFF
:10091800000E67205D6E6838E8461F0B010B5E6E9F
:10092800EFEC01F0696E120020EE04F05C50D9265D
:100938005D50DA22DFB4A3EF04F0A5EF04F0A8EFCE
:1009480004F0CD92D6EF04F020EE04F05C50D926E6
:100958005D50DA22DFA4B3EF04F0B5EF04F0D6EF70
:1009680004F0CD8220EE04F05C50D9265D50DA22E6
:10097800DFB6C1EF04F0C3EF04F0C6EF04F0CD9486
:10098800D6EF04F020EE04F05C50D9265D50DA2250
:10099800DFA6D1EF04F0D3EF04F0D6EF04F0CD8456
:1009A800D6EF04F012003B4A3C2A0A0E3B183C10D2
:1009B800D8A4E1EF04F0E3EF04F0E8EF04F0592ADB
:1009C800000E3C6E000E3B6E3C0E5918D8A4EFEF9B
:1009D80004F0F1EF04F0F4EF04F0582A000E596E19
:1009E8003C0E5818D8A4FBEF04F0FDEF04F000EF1C
:1009F80005F0572A000E586E180E5718D8A407EF9E
:100A080005F009EF05F00BEF05F0000E576E120028
:100A180066506710D8B413EF05F015EF05F026EF10
:100A280005F066C0D9FF67C0DAFFDF30E832E83288
:100A3800070B686E070E686424EF05F026EF05F0D3
:100A480026EF05F066C05CF067C05DF04DEC01F084
:100A580066C05CF067C05DF066C0D9FF67C0DAFFAA
:100A6800000EDFBE010E5E6EEFEC01F0696E69509C
:100A780012006A506B10D8A444EF05F046EF05F059
:100A880048EF05F06AEF05F06AC066F06BC067F0E2
:100A98000CEC05F06C6E010E6A24666E000E6B207D
:100AA800676E0CEC05F06C6E020E6A24666E000E22
:100AB8006B20676E0CEC05F06C6E030E6A24666E94
:100AC800000E6B20676E0CEC05F06C6E120020EEC9
:100AD80004F05C50D9265D50DA22DFBA76EF05F0D3
:100AE80078EF05F07BEF05F0CD9E89EF05F020EE5D
:100AF80004F05C50D9265D50DA22DFAA86EF05F0B3
:100B080088EF05F089EF05F0CD8E120020EE04F095
:100B18005C50D9265D50DA22DFA895EF05F097EFF3
:100B280005F09AEF05F0CD86A8EF05F020EE04F069
:100B38005C50D9265D50DA22DFB8A5EF05F0A7EFA3
:100B480005F0A8EF05F0CD9612005F6E050E5F6404
:100B5800B0EF05F0B2EF05F0B4EF05F0C6EF05F021
:100B68005F50020D0B0EF324D96E000EF420DA6EDE
:100B7800DECF5DF0DDCF5EF05DC0D9FF5EC0DAFF8D
:100B88005CC0DFFF1200800F810F820F830F840F7C
:100B9800890F8A0F8B0F8C0F8D0F920F930F940F65
:100BA800950F960FAE09B03C02020A121A015000C6
:100BB800014800014000012B231B130B0301010115
:100BC8008E0EF66E0B0EF76E000EF86E00EE01F04C
:100BD80010EE3AF00900F5CFEEFFE550E150FAE1EA
:100BE80000EE3BF01F0EEE6AE806FDE16E906E9295
:100BF800000EF86E000109EF00F09E903E50CF6E97
:100C08003DC0CEFF3F504010D8B40DEF06F00FEFB7
:100C180006F01CEF06F002D81CEF06F00500FA6E8D
:100C28003F50FD6E4050FE6EF850FF6EFA501200B5
:100C380012000600FACF5AF0FBCF5BF09DA027EF19
:100C480006F029EF06F032EF06F09EA02EEF06F030
:100C580030EF06F032EF06F001EC06F05BC0FBFF68
:100C68005AC0FAFF6E92110065506610D8A43FEF83
:100C780006F041EF06F043EF06F049EF06F065C0D5
:100C88005CF066C05DF04DEC01F012005C505D1048
:100C9800D8A451EF06F053EF06F055EF06F057EFE2
:080CA80006F0CD909D901200B2
:020000040020DA
:08000000FFFFFFFFFFFFFFFF00
:020000040030CA
:0E000000FF020912FF8181FF0FC00FE00F40C9
:00000001FF
